:100000008031E6280000532A4129D406000021004F
:100010000C1122000C110830F8000E280000F8170F
:100020002128F8132000A70C220003180C15031C2C
:100030000C11781721287813F80B12281F280000BC
:100040000C151B308400840B232826280000F81B85
:100050001128781B1B28200008000B08A3008B1315
:100060002300951715140000000013087F390319A9
:100070006E282000A400230011082000A500230002
:1000800012082000A6002408A70007202508230046
:1000900091002000260823009200951715140000F7
:1000A0000000130D140D7F3903196E282000A400E1
:1000B000230011082000A500230012082000A6003C
:1000C0002408A70007202508230091002000260807
:1000D00023009200910A0319920A31282000A31BE1
:1000E0008B1780310D2920308500043084000008F2
:1000F000031988280130F800F701F70B7D28F80B69
:100100007C284A30F700F70B83288628800B7A2852
:10011000803112298C1C91280330F700F70B8E28B0
:100120008A288C18BA2821008C1420008C18962854
:100130000830F700A401F717AB28F713AB2803101A
:100140008C180314A40C7717AB287713F70B9F2890
:100150002408F800B7281C30F71B0730F800F80B0C
:10016000AF280000F71B9D28771BA5289F2878083B
:10017000A300BB28A3012308F80080312129210016
:100180000C1322000C130830F800C6280000F817E2
:10019000D928F8132000A30C220003180C17031C05
:1001A0000C137817D9287813F80BCA28D728000021
:1001B0000C171B308400840BDB28DE280000F81BA2
:1001C000C928781BD3288031200026298501840185
:1001D0001F3083056A30210099000C1122000C1594
:1001E00021000C1322000C1723008C018D0122002A
:1001F00092019101940193012000221021008D159C
:1002000020008D19152922181529221403302300E6
:1002100091000030920020002D280230A300FA3017
:10022000A4007328A30B0F29262921008D15200077
:100230008D1D1E29221C1E29221026298C182629D4
:100240008A287808A1002108A300BF28FE2863009F
:020000040001F9
:04000E00CC3FFF1EC6
:00000001FF
;PIC16F1827
;CRC=0C06  CREATED="12-juin-17 09:41"
